:020000040800F2
:1000000018050020010100080D1D00080F17000849
:10001000DD1C000851110008FB330008000000003F
:10002000000000000000000000000000F9250008AA
:100030008111000800000000212400080D2700089D
:100040001B0100081B0100081B0100081B01000820
:100050001B0100081B0100081B0100081B01000810
:100060001B0100081B0100081B0100081B01000800
:100070001B0100081B0100081B0100081B010008F0
:100080001B0100081B0100081B0100081B010008E0
:100090001B0100081B0100081B0100088511000856
:1000A0001B0100081B0100081B0100081B010008C0
:1000B000B12900081B010008C92900081B0100081C
:1000C0001B0100081B0100081B0100081B010008A0
:1000D0001B0100082D2F0008793000088D30000822
:1000E0001B0100081B0100081B010008DFF80CD0F1
:1000F00000F01AFE0048004741560008180500208D
:100100000648804706480047FEE7FEE7FEE7FEE7B1
:10011000FEE7FEE7FEE7FEE7FEE7FEE71127000841
:10012000ED0000082DE9F0410024061B254671F181
:10013000000605DA01240027D0EB070067EB010178
:10014000161E73F1000605DA0027D2EB070201251F
:1001500067EB030300F098FC86460E4617469C4664
:10016000AC4204D00025D0EB050E65EB010624B1AE
:100170000020D2EB000760EB030C704631463A4694
:100180006346BDE8F081D2B201E000F8012B491EC0
:10019000FBD270470022F6E710B513460A46044624
:1001A0001946FFF7F0FF204610BD30B50446002089
:1001B000034600E05B1C934203D2E05CCD5C401B35
:1001C000F8D030BD0FB400B58DB010A909900B90D8
:1001D00000914FF0FF300A9000200C9005480690E7
:1001E000054807906A4609A80F9900F0C3FC0DB0B6
:1001F0005DF814FB910B0008AF0B00082DE9FF5FC1
:100200001D464FF0FF3BD5E9014691465F464FF052
:100210000008A9697F1C01988847296A8246884797
:100220000028F6D1BAF1FF3F0CD024F4C064002EB0
:1002300019DD600614D5BAF12B0F09D0BAF12D0FD4
:100240000ED103E0584604B0BDE8F09F44F480644A
:10025000A9697F1C01988847761E8246002E02DD20
:10026000BAF1300F03D0B9F1000F26D032E0A969FE
:10027000761E44F400747F1C019888478246002E45
:1002800005DDBAF1780F06D0BAF1580F03D0B9F1F5
:10029000000F10D01EE0B9F1000F02D0B9F1100F1D
:1002A00018D1A969761E24F400747F1C0198884730
:1002B0008246102002E0082000E00A20814609E082
:1002C00008FB0908A969761E44F400747F1C019894
:1002D00088478246002E05DD4946504600F036FC30
:1002E0000028EDDAE96901988847A00502D46FF08B
:1002F0000100A8E7E00725D1600613D5600502D507
:10030000C8F1000000E0404629680A1D2A6009681B
:10031000220501D5087015E0220701D5088011E0FB
:1003200008600FE02868011D29600068210502D5DA
:1003300080F8008006E0210702D5A0F8008001E0E7
:10034000C0F8008038467EE72DE9FF5FD2E901A7BB
:100350004FF00008916999461446DDF838B04646DA
:1003600001988847054659EA0B0005D009E0A169C4
:10037000761C019888470546216A28468847002848
:10038000F5D1681C03D05FEACA7005D015E04FF0C4
:10039000FF3004B0BDE8F09F2068011D2160D0F857
:1003A00000800AE05FEACA7001D108F8015BA16928
:1003B000761C7F1E019888470546002F1ADD681CB1
:1003C00018D0B9F1000F0DD0E81705EBD06042113D
:1003D00020F01F0059F822102A1A012090400142F3
:1003E000E0D107E0BBF1000FDCD1216A2846884745
:1003F0000028D7D0E16901988847BBF1000F07D1E9
:10040000002E05DD5FEACA7002D1002188F80010D5
:10041000A068B84203DDBBF1000F03D017B16FF045
:100420000100B6E73046B4E7F0B480EA0102D40F29
:100430004200B2EB410F02D20246084611464A0082
:1004400042D0C30DDDB2C1F3C752AD1A202D35DA4B
:10045000C1F3160141F4000204B15242C5F1200675
:1004600002FA06F12A411044B3EBD05F23D0C4B1A5
:10047000012DA0EBC35009DCF0BC4FF0004202EAB2
:10048000C352DBB200F5000000F0ABBB400000F14E
:10049000807000EBC350A0F1807040EAD170490039
:1004A00009E0490841EAC071A0EBC35000F5000023
:1004B000400800EBC350F0BC00F08ABB614201224F
:1004C00002EB4101001BF6E7F0BC704781F00041F0
:1004D000AAE780F00040A7E780EA010210B502F029
:1004E0000043400022D04A001FD0010E01EB1261F0
:1004F000C0F35600C2F3560240F4000042F400027A
:10050000A0FB022000047F39140400D0401C50EAF4
:10051000124001D44000491EC2B20C0604EBD010B8
:10052000401C4008802A02D003E0002010BD20F0CB
:100530000100002900DA0020184310BD30B480EA21
:10054000010202F0004530F0004221F0004013D0DB
:1005500090B1C30DD40DC2F31601C0F31600E41A16
:1005600041F4000140F400027D34914201D3641C47
:1005700000E04900002C02DA30BC002070474FF444
:1005800000000023914201D3891A034340084FEA37
:100590004101F7D151B1914202D14FF0004105E044
:1005A00002D24FF0010101E06FF0010103EBC450F2
:1005B000284430BC00F00CBB2DE9FE4F804681EA98
:1005C0000300C00F0C46009021F0004123F00045CD
:1005D000B8EB0200A94105D24046214690461C4690
:1005E0000B46024623F00040104347D0270DC7F3C7
:1005F0000A00C3F30A510290401A019040286BDAB6
:10060000C3F3130040F4801B0098924620B10023EE
:10061000D2EB030A63EB0B0B01985946C0F1400281
:10062000504600F062FA06460D4650465946019A79
:1006300000F07AFA10EB08006141002487EA1152B9
:1006400084EAE7731A4340D0009A62B3019A012A00
:100650004FEA075215DC001B61EB02014FF000422C
:1006600002EA0752CDE90042001C41F580113246F2
:100670002B4600F0F3FA03B0BDE8F08F4046214668
:10068000F9E7001B61EB0201001C41F58013001823
:100690005B412018A2F5001747EB030140EAD57033
:1006A000B6196D4111E06D084FEA360645EAC0758E
:1006B0004FEA0752001B61EB0201001C41F580115B
:1006C00049084FEA30000019514132462B4603B029
:1006D000BDE8F04F00F0B3BA0098012240000023BB
:1006E000D0EB020263EBE073009821464FEAE0741E
:1006F000B8EB000061EB0401E9E783F000435BE73E
:1007000081F0004158E72DE9FE4F81EA030404F02F
:10071000004421F0004100944FF0000B23F000430F
:1007200050EA01045ED052EA03045BD0C3F30A54DA
:10073000C1F30A552C44A4F2F3340194A0FB0254F3
:10074000C1F3130141F48011C3F3130343F4801385
:1007500001FB024400FB034E840A970A44EA8154D9
:1007600047EA8357A4FB076802958D0A05FB0785B6
:100770004FEA932C04FB0C542705029D4FEA0658C0
:1007800047EA1637B5EB08056EEB070C870E920E9D
:1007900047EA811742EA8312A7FB0201B6EB0B017D
:1007A00064EB00042B0D43EA0C335E1844EB1C5041
:1007B000DA465146E7FB0201C5F313044FEA0B3357
:1007C00043EA14534FEA0432019C43EA0603A4F1BE
:1007D0000C040294009CCDE900B400F03FFA03B091
:1007E000BDE8F08F00200146F9E72DE9F04D81EAE0
:1007F000030404F0004B21F0004514464FF0000ABA
:1008000023F0004150EA050220D054EA01021DD035
:10081000C5F30A570246C5F31303C1F31300C1F32E
:100820000A5640F4801543F48013A7EB0608101B0A
:10083000D64608F2FD3873EB050002D308F1010833
:1008400001E092185B41B8F1000F03DA0020014685
:10085000BDE8F08D00204FF48011064684460EE07E
:10086000171B73EB050705D3121B63EB0503064348
:100870004CEA010C49084FEA300092185B4150EAFB
:100880000107EDD152EA030012D082EA040083EAA4
:100890000501084305D0101BAB4106D201220023FD
:1008A00006E000224FF0004302E06FF00102531017
:1008B0001AEB06004CEB085110EB0A0041EB0B0160
:1008C000BDE8F04D00F0BBB9C10F80EAE07008440C
:1008D000CA079623002100F084B99623002211460E
:1008E00000F07FB90EB5C10F80EAE0700844CA0776
:1008F000002140F233438DE80E000A460B4600F01B
:10090000ADF903B000BD00F0004220F00040C10D81
:10091000C0F3160040F400007F2901DA0020704780
:10092000962903DCC1F19601C84001E09639884060
:10093000002AF4D04042704720F00040C10DC0F3BF
:10094000160040F400007F2901DA00207047962944
:1009500003DCC1F19601C840704796398840704762
:1009600070B5C1F30A5201F000450024C1F3130130
:1009700040F2FF3341F480119A4201DA002070BD49
:1009800040F233439A42A2F2334203DC524200F077
:10099000BBF800E090402C43F1D0404270BDC1F361
:1009A0000A5210B5C1F3130140F2FF3341F4801134
:1009B0009A4201DA002010BD40F233439A42A2F27B
:1009C000334203DC524200F09FF810BD904010BD4E
:1009D00000F0004230F000400AD0C10D01F5607116
:1009E000C0F3160042EA0151C208400711437047A4
:1009F000002001467047000030B5041E71F100046C
:100A000004DB4FF00044404264EB0101141E73F11B
:100A1000000405DB1C464FF00043524263EB040325
:100A20008B4208BF824230BD01F0004330B421F058
:100A3000004150EA010206D00A0DA2F56072C1F32E
:100A40001301002A02DC30BC00207047440F44EA46
:100A5000C104C100E01830BC00EBC25000F0B8B8CF
:100A6000002801DBC0F10040002901DBC1F1004199
:100A700081427047002801DBC0F10040002901DB02
:100A8000C1F10041884270472DE9F05F0546002022
:100A900092469B4688460646814640241BE02846EF
:100AA00041464746224600F02FF853465A46C01AA0
:100AB000914110D311461846224600F016F82D1A1F
:100AC00067EB01084F4622460120002100F00DF897
:100AD00017EB00094E41201EA4F10104DFDC48465B
:100AE00031462A464346BDE8F09F202A04DB203ADF
:100AF00000FA02F1002070479140C2F1200320FA71
:100B000003F3194390407047202A04DB203A21FA6E
:100B100002F00021704721FA02F3D040C2F1200216
:100B20009140084319467047202A06DBCB17203A2C
:100B300041FA02F043EAE07306E041FA02F3D040E2
:100B4000C2F1200291400843194670473A2800D26A
:100B5000303820F02002412A01D3A2F13700884228
:100B600001D34FF0FF3070470268114413780160E1
:100B700018467047D160044951610449116200214F
:100B80001161114600F0E8B8690B00084D0D00082E
:100B9000426842B1016811F8013B23B1521EC0E91D
:100BA0000012184670470121C160881E70474268D4
:100BB0005AB1C368016843B983688B4205D0491EA6
:100BC000521CC0E90012002070474FF0FF30704700
:100BD0000029A8BF7047401C490008BF20F0010051
:100BE000704710B4B0FA80FC00FA0CF050EA01042F
:100BF00004BF10BC704749B1CCF1200421FA04F4C1
:100C000011FA0CF118BF012121430843A3EB0C0199
:100C1000CB1D4FEA00614FEA102042BF002010BCFC
:100C2000704700EBC35010440029A4BF10BC7047AC
:100C3000401C490008BF20F0010010BC704710B5EF
:100C4000141E73F1000408DA401C41F100019218EF
:100C50005B411A4301D120F0010010BD2DE9F04D98
:100C600092469B4611B1B1FA81F202E0B0FA80F2ED
:100C700020329046FFF739FF04460F4640EA0A004B
:100C800041EA0B0153465A46084313D0114653EA32
:100C9000010019D0C8F140025046FFF735FF054664
:100CA0000E46504659464246FFF71FFF084305D0FF
:100CB000012004E020463946BDE8F08D00200543C0
:100CC00046EAE0762C4337430A986305E40AA0EB32
:100CD00008000022FD0A44EA47540A3002D50020E9
:100CE0000146E9E7010510196941DDE908450019E8
:100CF0006941BDE8F04DA2E770B521F00043034320
:100D00000CD0C1F30A550024D5EB040564EB0403B1
:100D1000D617AD1AB34102DB0020014670BD201882
:100D200041EB025170BD0000064C074D06E0E06843
:100D300040F0010394E8070098471034AC42F6D322
:100D4000FFF7D8F9E880000808810008C0B24FF426
:100D5000F05100F0E9B900002DE9F34F8BB04FF0EE
:100D6000000801F10C000C464FF0010B46460DF156
:100D7000080A01906269012101989047051E2DD053
:100D8000252D2CD0216A8847C0B1626901210198C4
:100D90009047216A88470028F7D1411E626901986F
:100DA000904700E0761CA1690B988847216A884724
:100DB0000028F7D1E1690B988847DBE7A1690B9818
:100DC00088470746A84201D1761CD3E7E1690B9812
:100DD00088477F1C02D1B8F1000F6FD046E1002791
:100DE00062693D463946019890472A2804D16269D4
:100DF0000121019890470125DFF884926269012161
:100E000001989047A0F130010A290AD24F45E5DC4C
:100E100007EB870100EB4107303FDFD445F01005B9
:100E2000ECE7E90601D46FF000476C280AD04C28A3
:100E300014D0682815D06A280DD074281CD07A28C0
:100E40001AD01DE062690121019890476C2802D0F8
:100E500045F0040514E045F002050DE045F02005DD
:100E60000AE06269012101989047682802D045F0A4
:100E7000080505E045F40065626901210198904785
:100E8000C4E9015765283DD019DC58287AD00CDC1C
:100E9000452837D004DC252826D0412831D131E03F
:100EA00046282FD047282CD12CE05B2877D061280A
:100EB00028D063287CD0642823D15AE0D0E06F2862
:100EC00048D008DC66281DD067281BD0692821D0AF
:100ED0006E2816D127E0702845D0732868D0752871
:100EE00047D078280DD14DE0A1690B988847054679
:100EF00025283FF469AFE1690B9888476D1C3FF4E2
:100F00006AAFB3E023466A466FF001000B99AFF376
:100F100000809EE045F040006060A80723464FF047
:100F2000000236D43EE0E8077FF447AF2068011D99
:100F300021600068290501D506701BE7290701D546
:100F4000068017E7A90703D5F117C0E9006111E78B
:100F500006600FE745F040006060A80723464FF0A9
:100F6000080216D41EE040F60E0125EA010060607A
:100F700016E045F040006060A80723464FF00A02E3
:100F800007D40FE045F040006060A80708D523466D
:100F900010226FF001000B99AFF3008059E007E0D9
:100FA000234610226FF001000B99FFF727F950E05C
:100FB0004FF000094F464B46632802D05B2806D00D
:100FC00040E0E80601D40120A06001273AE0626910
:100FD0000121019890475E2805D14FF0010962690F
:100FE000494601989047216939B900210A4653467C
:100FF00043F82120491C0829FADBB0B3216969B9FB
:10100000C11700EBD16253110AEB830122F01F02DA
:10101000821A01200B68904003430B606269012132
:10102000019890475D28E8D1B9F1000F09D0002060
:10103000514651F82020D24341F82020401C082876
:10104000F7DB02AB224600976FF001000B99FFF728
:101050007BF900280CDA401C08D1BBF1000F05D049
:101060004FF0FF300DB0BDE8F08FFFE74046F9E7E5
:10107000E90701D108F1010806444FF0000B79E6B9
:10108000CCCCCC0C2DE9F04D00231A461B1A8A411A
:1010900003DB00200146BDE8F08DC1F30A52C1F325
:1010A000130141F480154FF0000BD10702D1001855
:1010B0006D41521E0027044640F2FF11384601EBF5
:1010C000620A3E468046024600204FF48011FFF738
:1010D0001BFDC2197141BB1846EB0100B4EB030CB8
:1010E00075EB000C04D3E41A65EB000517460E46B9
:1010F000241908F101006D4180463428E3DDF91917
:1011000046EB0600091BA84103D24FF0FF321346FD
:1011100001E0002213461BEB070046EB0A51BDE835
:10112000F04DFFF78CBD00007F2801D9002208E0B8
:10113000064A02EB5002C007127800D1120902F0F1
:101140000F020120904008407047000058800008BE
:1011500000BFFEE708B50121042001F073F9482023
:101160008DF803003020ADF8000003208DF8020058
:101170006946024800F0EAF908BD00000008014095
:101180007047000070B5202000F0C2F800287DD024
:1011900045480068002879D1202000F0B3F80220EB
:1011A00001F0CAF941490860042001F0C5F9404244
:1011B0003F4908603D480068096808443D490860A7
:1011C0003D4A3E493E4804F0B7FA3E4A3E493F4850
:1011D00000F0E6FA3C48B0F90000FFF775FB054661
:1011E00029463748006802F0E9F939490860314872
:1011F000006802F005F9374908603248B0F900008C
:1012000001F0EAFD34490860314800683149096855
:10121000441831480068201A304908602E48006898
:1012200020442F4908602D4800F074FA24480068D3
:1012300001F056FE28B92A4801682848006801F0E4
:101240009DF91021274800F055FAA0B90020264941
:10125000087026490870264908700021254801F0C9
:10126000EEFF0121244801F0EAFF01202349087024
:1012700000202349087020211A4800F03BFA28B9C1
:1012800001201B49087000211B4800E00BE001F021
:10129000D6FF0121174801F0D2FF0020174908703E
:1012A00001201749087070BD1481214218000020E8
:1012B0001C0000208C0000201400002010000020E2
:1012C0000C00002008000020060000200400002080
:1012D0008000002084000020880000209000002072
:1012E0009400002000080140290000202800002070
:1012F0002300002000480040003801402B0000205F
:101300002A000020014908607047000014040140D1
:10131000014600200022074B1B6803EA0102054B2F
:1013200014331B680B4013B10AB1012000E0002008
:101330007047000000040140002123498279002AFF
:101340003AD00A46126803689A430B461A600A1D8F
:10135000126803689A430B1D1A60027911440A68E7
:1013600003681A430A60184A0832126803689A43ED
:10137000154B08331A601A1D126803689A43124B02
:101380000C331A604279102A0ED11A1F12680368B2
:101390001A430D4B08331A601A1D126803681A436A
:1013A000094B0C331A600DE00749427911440A6871
:1013B00003681A430A6005E0027911440A68036869
:1013C0009A430A60704700000004014000B587B0EE
:1013D0000121042001F036F80121084601F022F82D
:1013E00004208DF81B000320ADF8180006A91C4846
:1013F00000F0ACF80020ADF81200ADF80E004FF68A
:10140000FF70ADF810000020ADF80C0003A94FF0FC
:10141000804001F085FC00231A4603214FF08040F4
:1014200001F00DFB684601F095FB0A20ADF80800BD
:101430006946400701F038FB0121880701F0DEFA18
:1014400001221146900701F08EFB00214FF08040F1
:1014500001F038FC0121880701F0D6FA07B000BD81
:101460000008014000B587B00121082000F0EAFF24
:101470000121042000F0D6FF04208DF81B00C020BD
:10148000ADF8180006A91B4800F060F80020ADF880
:101490001200ADF80E004FF6FF70ADF810000020FE
:1014A000ADF80C0003A9144801F03AFC00231A46D9
:1014B0000321114801F0C3FA684601F04BFB0A20F2
:1014C000ADF8080069460C4801F0EEFA01210A481F
:1014D00001F094FA01221146074801F044FB002173
:1014E000054801F0EFFB0121034801F08DFA07B038
:1014F00000BD0000000C014000080040014600292A
:1015000001DD0A4600E04A421046704730B500222D
:101510008B071C0F0F2303FA04F20B4B8C1053F8AC
:1015200024309343084C8D1044F8253023468C100A
:1015300053F824308C07240F00FA04F42343024CA0
:101540008D1044F8253030BD080001402DE9F041F0
:10155000024600250026002000230024002791F8E1
:1015600003C00CF00F0591F803C00CF0100CBCF197
:10157000000F03D091F802C04CEA050591F800C0B5
:10158000BCF1000F31D0146800202BE04FF0010CAB
:101590000CFA00F3B1F800C00CEA03069E4220D119
:1015A00083004FF00F0C0CFA03F7BC4305FA03FC61
:1015B0004CEA040491F803C0BCF1280F06D14FF0A7
:1015C000010C0CFA00FCC2F814C00AE091F803C048
:1015D000BCF1480F05D14FF0010C0CFA00FCC2F829
:1015E00010C0401C0828D1D31460B1F800C0BCF171
:1015F000FF0F34DD546800202EE000F1080C4FF09E
:10160000010808FA0CF3B1F800C00CEA03069E4288
:1016100021D183004FF00F0C0CFA03F7BC4305FAFD
:1016200003FC4CEA040491F803C0BCF1280F05D177
:1016300000F1080C08FA0CF8C2F8148091F803C005
:10164000BCF1480F07D100F1080C4FF0010808FA6F
:101650000CF8C2F81080401C0828CED35460BDE8B6
:10166000F0810000F0B50A46002300240021002587
:1016700000F00046B6F1004F02D11D4EF16901E0C5
:101680001B4E7168C0F3034583B200F44016B6F5F3
:10169000401F08D121F07061154E766826F0706603
:1016A000134F7E6012E000F48016B6F5801F06D15D
:1016B000032606FA05F4A14341F0706106E0460DE9
:1016C000360103FA06F6B14341F0706122B1460DCE
:1016D000360103FA06F6314300F00046B6F1004F3A
:1016E00002D1034EF16101E0014E7160F0BD0000D6
:1016F000000001400246002093680B400BB101201E
:1017000000E000207047416170470161704700BFF1
:10171000FEE700000268B2F5E15F02DD4FF4E1523E
:101720000260026812F5E15F01DA084A02600A68A5
:10173000B2F5E15F02DD4FF4E1520A600A6812F58A
:10174000E15F01DA014A0A6070470000E0E3FFFF51
:101750000EB50121092000F075FE2020ADF8000033
:1017600048208DF8030003208DF8020069460B48DD
:10177000FFF7ECFE05210120FFF7C8FE20200190B5
:1017800001208DF80A0000208DF808000C208DF84B
:10179000090001A8FFF7D0FD0EBD0000000C0140BC
:1017A0002DE9FC4104460D4616466B4606224321B0
:1017B000682000F0BDF90746BFB99DF801009DF80B
:1017C000001040EA012000B220809DF803009DF83F
:1017D000021040EA012000B228809DF805009DF823
:1017E000041040EA012000B230803846BDE8FC8198
:1017F00010B500200E4908600E48006820F47040C3
:101800000C4908600846006840F440500860002019
:101810000949C1F88C0100F011F801200449086061
:1018200000F00CF800200449C1F8900110BD000040
:1018300090812142000C01400080214210B502201D
:1018400002F096FD10BD000008B50121082000F04F
:10185000F9FD1820ADF8000010208DF803000320DA
:101860008DF8020069460248FFF770FE08BD0000CF
:10187000000C014010B500200E4908600E480068B9
:1018800020F470400C4908600846006840F440505D
:10189000086001200949C1F88C01FFF7CFFF012042
:1018A00004490860FFF7CAFF00200449C1F890010D
:1018B00010BD000090812142000C014000802142B7
:1018C00070B5054600241648006820F4704014499D
:1018D00008600846006840F400400860002614E0F4
:1018E000002010490860FFF7A9FF01200E49C1F848
:1018F00090016006040E0B488438006808B1601C33
:10190000C4B2FFF79BFF701CC6B2082EE8DB15B906
:10191000FFF7B0FF01E0FFF76BFF204670BD00004E
:10192000000C0140908121420080214270B50446A4
:101930001248006820F470401049086008460068AA
:1019400040F44050086000200D490860002512E076
:10195000E0090B49091F08606006040E01200949CF
:10196000C1F89001FFF76AFF002005490860FFF702
:1019700065FF681CC5B2082DEADB70BD000C014094
:10198000908121420080214210B50E48006820F469
:1019900070400C4908600846006840F440500860F8
:1019A0000120094908600949C1F89001FFF746FF85
:1019B000002005490860FFF741FF00200349C1F8F6
:1019C000900110BD000C01408C8121420080214219
:1019D00010B50E48006820F470400C4908600846B5
:1019E000006840F440500860002009490860094937
:1019F000C1F88C01FFF722FF012005490860054965
:101A0000C1F88C01FFF71AFF10BD0000000C014067
:101A1000908121420080214210B5002414480068C2
:101A200020F47040124908600846006840F4004005
:101A3000086001200F490860FFF700FF01200E49F0
:101A4000C1F89001FFF7FAFE07E0601CC4B2FA2C5F
:101A500003DDFFF7BDFF012010BD06488038006898
:101A60000028F2D10349091D086000BFF4E7000017
:101A7000000C01408C8121420080214210B5FFF70B
:101A8000E3FE80216B2000F0D7F8642002F04AFCCE
:101A900000216B2000F0D0F8032000F08BF800202C
:101AA00000F080F8C82000F0AAF80021382000F0EB
:101AB000C3F800216A2000F0BFF80021232000F0C5
:101AC000BBF88021372000F0B7F8752000F013F83C
:101AD0000446682C0BD101216B2000F0ADF80021E9
:101AE0006C2000F0A9F8642000F089F801E00120E2
:101AF00010BD0020FCE770B50446FFF745FFD0207D
:101B0000FFF714FFFFF788FF2046FFF70FFFFFF7EF
:101B100083FFFFF739FFD120FFF708FFFFF77CFFB6
:101B20000020FFF7CDFE0546FFF752FF284670BDA7
:101B30002DE9F04106460F4614461D46FFF724FFE7
:101B4000002141EA4601C8B2FFF7F0FEFFF764FF4B
:101B500020B1FFF73DFF0120BDE8F0813846FFF7D7
:101B6000E5FEFFF759FFFFF70FFF012101EB4601EB
:101B7000C8B2FFF7DBFEFFF74FFF0DE0012C04D1E9
:101B80000020FFF79DFE287003E00120FFF798FE7C
:101B90002870601EC4B26D1C002CEFD1FFF718FF37
:101BA0000020D9E710B50446E006010E1C2000F025
:101BB00043F810BD10B50446E006010E1B2000F0EE
:101BC0003BF810BD70B504460025BC2C01DB012597
:101BD00010E0622C01DB02250CE02A2C01DB03253E
:101BE00008E0142C01DB042504E00A2C01DB0525A8
:101BF00000E0062529461A2000F01EF870BD70B5D9
:101C00000446B4F57A7F01DD4FF47A74042C00DACF
:101C100004244FF47A7090FBF4F0401EC5B22946BC
:101C2000192000F009F80546264604EBD671C1F3E9
:101C30004F00FFF7C7FF70BD70B505460C46FFF7B4
:101C4000A3FED020FFF772FEFFF7E6FE18B1FFF704
:101C5000BFFE012070BD2846FFF768FEFFF7DCFEDF
:101C60002046FFF763FEFFF7D7FE18B1FFF7B0FE7F
:101C70000120EFE7FFF7ACFE0020EBE72DE9F04194
:101C800005460E4617469846FFF77EFE002141EABC
:101C90004501C8B2FFF74AFEFFF7BEFE20B1FFF7CD
:101CA00097FE0120BDE8F0813046FFF73FFEFFF7C9
:101CB000B3FE00240CE018F80400FFF737FEFFF72E
:101CC000ABFE18B1FFF784FE0120EBE7601CC4B245
:101CD000BC42F0DBFFF77CFE0020E3E700BFFEE73D
:101CE00008B50121082000F0ADFB10208DF803009D
:101CF0004FF47040ADF8000003208DF802006946F3
:101D00000148FFF723FC08BD000C0140704708B5EF
:101D100017208DF8000000208DF801008DF80200DA
:101D200001208DF80300684600F02EF825208DF87C
:101D3000000001208DF8030002208DF80100002032
:101D40008DF80200684600F01FF826208DF800008C
:101D500001208DF8030002208DF8010000208DF88D
:101D60000200684600F010F827208DF800000120DE
:101D70008DF8030003208DF8010000208DF802008B
:101D8000684600F001F808BD70B5002100230F225D
:101D9000C47804B3154C246804F4E064C4F5E0642A
:101DA000210AC1F10403CA40447804FA03F184789B
:101DB0001440214309010E4C0678A155047804F023
:101DC0001F050124AC4005786D11AD0005F1E0253B
:101DD000C5F8004109E0047804F01F050124AC4077
:101DE000044D0678761145F8264070BD0CED00E0F4
:101DF00000E400E080E100E002490143024A116092
:101E0000704700000000FA050CED00E070B50024FA
:101E100018E004F1B000002100F045FA0021084666
:101E200000F041FA0021102000F03DFA002505E005
:101E30000121002000F037FA681CC5B2802DF7DBC5
:101E4000601CC4B2082CE4DB70BD00002DE9FF5F0C
:101E500086B014461D464FF0010A002003900490FE
:101E600005904FF00109002600BF8346002213466B
:101E700020462946FEF7C0FD09D285F00040CDE995
:101E8000004020460199FEF76BFD064604E020461F
:101E90002946FEF765FD06463046FEF723FD22463D
:101EA0002B46CDE90001FEF72BFC074688460022B1
:101EB000554B38464146FEF726FCCDE90001FEF7BA
:101EC0006EFD834607E009EB89004FEA40090AF1FD
:101ED000010000F0FF0A0A2096FBF0F090FBF9F0F9
:101EE0000028F0D142F2107096FBF0F00A2190FB2E
:101EF000F1F201FB1200C0B28DF80C004FF47A70C1
:101F000096FBF0F090FBF1F201FB1200C0B28DF8ED
:101F10000D00642096FBF0F090FBF1F201FB120043
:101F2000C0B28DF80E000A2096FBF0F090FBF1F2A3
:101F300001FB1200C0B28DF80F000A2096FBF0F1F1
:101F400000FB1160C0B28DF810002E208DF811003A
:101F50004FF47A70BBFBF0F00A21B0FBF1F201FB09
:101F600012008DF812006420BBFBF0F0B0FBF1F220
:101F700001FB12008DF813000A20BBFBF0F0B0FB50
:101F8000F1F201FB12008DF814000A20BBFBF0F106
:101F900000FB11B08DF8150000211498801D03AAD4
:101FA0001154894608E003A810F80900303003A94D
:101FB00001F8090009F10109B9F10A0FF3DB002268
:101FC000134620462946FEF717FD08D20AF1010004
:101FD00000F0FF0A2D20CAF1050103AA50542E205B
:101FE0008DF8110000211498801D03AA1154CAF124
:101FF000050003A942180C23DDE9061000F038F9AA
:102000000AB0BDE8F09F00000088C34010B54FF44F
:1020100080710948FFF779FB4FF400710648FFF71C
:1020200074FB4FF400710448FFF76DFB4FF48071AF
:102030000148FFF768FB10BD000C014010B54FF4DC
:1020400080710748FFF761FB4FF400710448FFF708
:102050005AFB4FF400710248FFF757FB10BD000018
:10206000000C014010B54FF480710448FFF74DFBA0
:102070004FF480710148FFF746FB10BD000C014092
:1020800008B50121092000F0DDF901214348FFF7DF
:10209000E9FA4FF44070ADF8000010208DF803000D
:1020A00003208DF8020069463D48FFF74FFA4FF4D0
:1020B00040713B48FFF729FB4FF4487002F032F9BA
:1020C0000021AE2000F0EFF80021084600F0EBF808
:1020D0000021102000F0E7F80021402000F0E3F894
:1020E0000021B02000F0DFF80021812000F0DBF8B3
:1020F0000021FF2000F0D7F80021A12000F0D3F844
:102100000021A62000F0CFF80021A82000F0CBF895
:1021100000213F2000F0C7F80021C82000F0C3F8DC
:102120000021D32000F0BFF80021084600F0BBF8E2
:102130000021D52000F0B7F80021802000F0B3F88E
:102140000021D82000F0AFF80021052000F0ABF806
:102150000021D92000F0A7F80021F12000F0A3F819
:102160000021DA2000F09FF80021122000F09BF8F7
:102170000021DB2000F097F80021302000F093F8D8
:1021800000218D2000F08FF80021142000F08BF842
:102190000021AF2000F087F808BD000000023000E9
:1021A000000C014070B504460D4605F1B000002159
:1021B00000F079F8102141EA1410002100F073F8C2
:1021C00004F00F00002100F06EF870BD2DE9F0471B
:1021D00007460E469046994600250024A8F12000A7
:1021E000C5B27F2F02DD0027B01CC6B2B9F1100FB7
:1021F00024D131463846FFF7D5FF002408E004EB30
:102200000511194A505C012100F04DF8601CC4B260
:10221000082CF4DB701CC1B23846FFF7C3FF002462
:1022200009E004EB051108310F4A505C012100F070
:102230003AF8601CC4B2082CF3DB12E03146384691
:10224000FFF7B0FF00240AE005EB4501074A02EB67
:102250004101085D012100F026F8601CC4B2062C83
:10226000F2DBBDE8F0870000747900084C770008C5
:102270002DE9F04105460E4614461F460EE0227831
:102280003B4631462846FFF7A1FF05F10800C5B2DD
:10229000782D02DD0025B01CC6B2641C2078002811
:1022A000EDD1BDE8F08170B504460D461DB1E0B238
:1022B00000F04AF802E0E0B200F030F870BD000033
:1022C0002DE9F04105462C464FF480711248FFF786
:1022D0001AFA00261CE0274607F08007802F04D159
:1022E000B9000D48FFF711FA04E04FF400710A48F5
:1022F000FFF709FA6006040E4FF480710648FFF7F5
:1023000004FA4FF480710448FFF7FDF9701CC6B25F
:10231000082EE0DBBDE8F081000C014010B504465A
:10232000FFF774FE7820FFF7CBFFFFF79BFE00203E
:10233000FFF7C6FFFFF796FE2046FFF7C1FFFFF746
:1023400091FEFFF77BFE10BD10B50446FFF75EFE61
:102350007820FFF7B5FFFFF785FE4020FFF7B0FFBD
:10236000FFF780FE2046FFF7ABFFFFF77BFEFFF78E
:1023700065FE10BD30B589B005460C46012140F61A
:10238000050000F05FF818208DF823004FF410606E
:10239000ADF8200003208DF8220008A91E48FFF7A1
:1023A000D5F805A800F00EFD0020ADF81A00ADF834
:1023B0001600ADF81850ADF8144005A9174800F004
:1023C000AFFC6020ADF804000020ADF80E00012045
:1023D000ADF806000020ADF80A0001A90F4800F092
:1023E000CBFB01A90D4800F01DFC01210B4800F0BA
:1023F00017FB0821094800F00BFC0821074800F0F2
:102400004FFC0121054800F0EDFA0121034800F0DE
:10241000FBFA09B030BD000000080140002C01406B
:102420007047000029B1064AD2690243044BDA61C1
:1024300004E0034AD2698243014BDA61704700002D
:102440000010024029B1064A92690243044B9A6186
:1024500004E0034A92698243014B9A61704700008D
:102460000010024030B500210022002400232D4D31
:102470006D6805F00C0121B1042905D0082923D18C
:1024800005E0294D056022E0274D05601FE0254D40
:102490006D6805F47012234D6D6805F480340225D3
:1024A00005EB92421CB9214D554305600BE01D4DD3
:1024B0006D6805F400351DB11C4D5543056002E003
:1024C000194D5543056002E0174D056000BF00BF80
:1024D000144D6D6805F0F0010909154D6B5C056838
:1024E000DD4045600F4D6D6805F4E061090A104D4F
:1024F0006B5C4568DD4085600A4D6D6805F4605190
:10250000C90A0B4D6B5C4568DD40C560054D6D68C3
:1025100005F44041890B074D6B5CC568B5FBF3F5CD
:10252000056130BD0010024000127A0000093D0034
:10253000E0000020F000002070B50546022D02D01A
:10254000042D14D10AE04FF0804000F099FA04B253
:1025500000214FF0804000F0B5FB0AE0064800F093
:102560008FFA04B20021044800F0ACFB01E0002423
:1025700000BF00BF204670BD0008004070B5054692
:102580000C46002D07DD012018490860002018497D
:10259000C1F8B40106E00020144908600120144984
:1025A000C1F8B4012846FEF7A9FF86B231461148AA
:1025B00000F083FB002C08DD00200C490831086086
:1025C00001200B49C1F8BC0107E00120074908318F
:1025D000086000200649C1F8BC012046FEF78EFFC6
:1025E00086B23146034800F06AFB70BDB0812142DB
:1025F00000802142002C0140704710B500F002F825
:1026000010BD00000CB50020019000903348006818
:1026100040F480303149086000BF3048006800F461
:10262000003000900198401C0190009818B9019862
:10263000B0F5A06FF1D12948006800F4003010B166
:102640000120009001E0002000900098012843D173
:102650002348006840F010002149086008460068DF
:1026600020F0030008600846006840F0020008609F
:102670001A4840681949486008464068486008465A
:10268000406840F4806048600846406820F47C1050
:1026900048600846406840F4E81048600846006812
:1026A00040F08070086000BF0C48006800F00070C7
:1026B0000028F9D00948406820F003000749486025
:1026C0000846406840F00200486000BF0348406888
:1026D00000F00C000828F9D10CBD000000100240E9
:1026E00000200240042808D14FF0E021096941F0A0
:1026F00004014FF0E022116107E04FF0E021096989
:1027000021F004014FF0E022116170477047000092
:1027100010B51348006840F00100114908600846F0
:102720004068104908400E494860084600680E4954
:1027300008400B4908600846006820F480200860C3
:102740000846406820F4FE0048604FF41F0088608F
:10275000FFF753FF4FF000600449086010BD000010
:10276000001002400000FFF8FFFFF6FE08ED00E059
:10277000F0B50C46154600220021068C4FF6FE7778
:102780003E400684028B018C4FF60C7632407E1C54
:1027900006EA03162E433243104EB0420ED0104EBE
:1027A000B0420BD0B0F1804F08D00E4EB04205D0F1
:1027B0000D4EB04202D00D4EB04206D14FF6FD761E
:1027C000314044F00106314305E04FF6F5763140E3
:1027D00044F00106314302830184F0BD002C014026
:1027E000003401400004004000080040000C00409C
:1027F000F0B50C461546002200210026078C4FF646
:10280000EF7C07EA0C070784028B018C4FF6FF77F9
:1028100007EA041640F6FF473A404FF6FF7707EA0B
:1028200003373A434FF6FF7707EA05273A43114F3C
:10283000B8420ED0104FB8420BD0B0F1804F08D044
:102840000E4FB84205D00E4FB84202D00D4FB842DD
:1028500006D14FF6DF77394046F01007394305E0DF
:102860004FF65F77394044F0100739430283018403
:10287000F0BD0000002C0140003401400004004085
:1028800000080040000C0040F0B50C461546002240
:1028900000210026078C4FF6FF6C07EA0C0707841F
:1028A000828B018C4FF6FF7707EA04264FF60C77F0
:1028B0003A404FF6FF7707EA03172F433A43114F89
:1028C000B8420ED0104FB8420BD0B0F1804F08D0B4
:1028D0000E4FB84205D00E4FB84202D00D4FB8424D
:1028E00006D14FF6FF57394046F48077394305E06B
:1028F0004FF2FF57394044F4807739438283018493
:10290000F0BD0000002C01400034014000040040F4
:1029100000080040000C0040F0B50C4615460022AF
:1029200000210026078C4EF6FF7C07EA0C0707847F
:10293000828B018C4FF6FF7707EA043640F6FF479B
:102940003A404FF6FF7707EA05273A434FF6FF77FD
:1029500007EA03373A43114FB8420ED0104FB8423E
:102960000BD0B0F1804F08D00E4FB84205D00E4FBB
:10297000B84202D00D4FB84206D14DF6FF7739402C
:1029800046F48057394305E047F6FF57394044F491
:102990008057394382830184F0BD0000002C014040
:1029A000003401400004004000080040000C0040DA
:1029B00010B50121880700F066F8012803D1012134
:1029C000800700F01EF810BD10B50121044800F08A
:1029D0005AF8012803D10121014800F012F810BD76
:1029E0000008004021B1028842F08002028004E029
:1029F00002884FF67F731A4002807047CA430282F2
:102A00007047CA430282704721B1028842F0010236
:102A1000028004E002884FF6FE731A40028070477D
:102A200031B1B0F8442042F40042A0F8442005E05F
:102A3000B0F84420C2F30E02A0F844207047F0B56D
:102A40000C4615461E460021002200230189028BF8
:102A5000038C4FF6F877394021434FF6FC473A4054
:102A600040F201173A434FF6DD773B404FF6FF77D0
:102A700007EA06172F433B43018102830384F0BD1D
:102A80000146888C704730B50246002000230024A0
:102A9000158A05EA0103958905EA010413B10CB111
:102AA000012000E0002030BD70B505460C462448EA
:102AB00085420ED0234885420BD0B5F1804F08D017
:102AC0002148854205D02148854202D020488542D0
:102AD00000D100E000BF208850B92389A288618816
:102AE0002846FFF745FEE188284600F0EDF825E08E
:102AF000208804280AD12389A28861882846FFF704
:102B000077FEE188284600F0E8F817E020880828DA
:102B10000AD12389A28861882846FFF7B5FEE1889B
:102B2000284600F0E7F809E02389A2886188284652
:102B3000FFF7F2FEE188284600F0E5F870BD0000DE
:102B4000002C014000340140000400400008004017
:102B5000000C004000210180418001218180002182
:102B6000C180018170471AB183890B43838102E0E0
:102B700083898B438381704770B500240022002332
:102B8000058C4FF6FE7635400584028C8388048BD5
:102B90004FF68F752C40B51E2C400D882C43751EAA
:102BA0002A400D892A434D882A43144DA8420BD050
:102BB000134DA84208D0134DA84205D0124DA8428B
:102BC00002D0124DA84213D14FF6F7752A404D8915
:102BD0002A434FF6FB752A408D882A434FF6FF653E
:102BE0002B404FF6FF552B408D892B43CD892B432E
:102BF00083800483CD888586028470BD002C0140CB
:102C000000340140004001400044014000480140C0
:102C10000A460021018B4FF6F773194011430183D7
:102C20007047000070B5002200230024058C4EF68A
:102C3000FF7635400584038C8488828B48F6FF75C7
:102C40002A404FF6FF452A400D884FF6FF7606EAE8
:102C500005252A434DF6FF752B400D8906EA0535FB
:102C60002B434D8806EA05352B430B4DA84202D075
:102C70000A4DA84208D14BF6FF752C408D894FF6BE
:102C8000FF7606EA85152C4384808283CD88A0F8E0
:102C90004050038470BD0000002C0140003401400E
:102CA0000A460021818B4FF2FF7319404FF6FF73E4
:102CB00003EA022319438183704781867047A0F895
:102CC0004010704781847047028B4FF6F3731A40AF
:102CD0000283028B0A4302837047028B4FF2FF3359
:102CE0001A400283028B4FF6FF7303EA01231A4353
:102CF00002837047828B4FF6F3731A408283828B74
:102D00000A4382837047828B4FF2FF331A408283DB
:102D1000828B4FF6FF7303EA01231A4382837047C5
:102D2000002202881D4B98420ED01D4B98420BD0BA
:102D3000B0F1804F08D01B4B984205D01A4B9842F7
:102D400002D01A4B984204D14FF68F731A404B8829
:102D50001A43174B984207D0164B984204D04FF6AF
:102D6000FF431A40CB881A4302808B8883850B88E7
:102D700003850A4B98420BD0094B984208D00E4B62
:102D8000984205D00D4B984202D00D4B984201D18C
:102D90000B7A03860123838270470000002C0140D8
:102DA000003401400004004000080040000C0040D6
:102DB0000010004000140040004001400044014069
:102DC000004801404FF6FF71818000210180C180E1
:102DD00041800172704700002DE9F05F05463448DC
:102DE000076834480078012803D133483349086024
:102DF00002E033483149086032480078012803D0A6
:102E00003148007801280BD12C48006880F0004838
:102E10004FF080414046FDF791FB2C4908601BE0D4
:102E20002B480078012803D02A480078012808D1CF
:102E30004FF0804121480068FDF780FB234908607E
:102E40000AE025480078012803D100201F490860C6
:102E500002E000201D4908601A480078012809D0C6
:102E60001B480078012805D01748007810B9194888
:102E7000007808B1002401E01848046805F10D004D
:102E8000FDF722FD83462146FDF726FB81463946A4
:102E90000E480068FDF720FB82464946FDF7C4FA5C
:102EA0008046FDF730FD06463046BDE8F09F000045
:102EB000780000202B0000200000F041B800002026
:102EC000000040412400002029000020B400002020
:102ED0002500002028000020260000207C00002083
:102EE00070B505460D492846FDF7BAFD04D30C49D7
:102EF0002846FDF7BFFD0DD20124002009490860D6
:102F00000949C1F8B4010749083108600649C1F808
:102F1000BC0100E00024204670BD0000000048C253
:102F200000002042B08121420080214210B540F2D1
:102F30002551474800F09CF9002872D04548007898
:102F400045490870424800F04FFA42490870084667
:102F5000007847284FD008DC412828D042283ED0AE
:102F6000432830D045286FD116E048284ED0582845
:102F700058D0592861D05A2866D1002037490870A6
:102F800037490870374908703749087001203749B8
:102F900008703749087058E0012030490870002057
:102FA0002F4908702F4908702F4908704DE0002004
:102FB0002A49087001202A49087000202949087010
:102FC0002949087041E0002024490870244908700C
:102FD00001202449087000202349087035E00020B2
:102FE0001E4908701E49087001201E490870002003
:102FF0001D49087029E00020184908701849087018
:10300000184908700120184908701EE00020134973
:10301000087013490870134908700120124908709C
:1030200013E013E013480078401E12490870084668
:10303000007808B90120087007E00E480078401CAD
:103040000C49087001E0FFE700BF00BF10BD0000A1
:1030500000380140C7000020C600002022000020E8
:103060002300002024000020250000202100002053
:10307000260000202700002010B540F2255102480C
:1030800000F0F6F810BD0000004400401CB540F20E
:103090002551394800F0ECF800286BD040F225515A
:1030A000354800F0BDF8344800F09EF9C4B25D2CFC
:1030B0004ED1324800785B2846D13148314B01AAC5
:1030C00031A100902D48FDF77DF82E480068642856
:1030D00005DD2C480068C0F164002A4908602848D2
:1030E0000068642805DD26480068C0F164002449B2
:1030F000086024480068002805DD01202449087084
:103100000020244908701F480068002805DD0020C1
:103110001F49087001201F490870194800680028DD
:1031200005DD01201A49087000201A49087014486A
:103130000068002805DA00201549087001201549AB
:1031400008700E4801F090F800201349087007E05D
:10315000114801780078401C0F4A10700748445409
:103160000D4800780A2805DD00200B490870034847
:1031700001F07AF81CBD0000004800400C0100205E
:10318000C0000020BC000020256325642C256400BD
:103190002800002029000020C400002010B586B0BF
:1031A000044601210920FFF74DF901218804FFF7AA
:1031B00039F94FF48060ADF8140003208DF8160043
:1031C00018208DF8170005A91348FEF7BFF94FF432
:1031D0000060ADF8140004208DF8170005A90E4812
:1031E000FEF7B4F901940020ADF80800ADF80A002C
:1031F000ADF80C00ADF810000C20ADF80E0001A9E0
:10320000064800F085F8012240F22551034800F0FD
:1032100059F806B010BD0000000C01400048004005
:1032200010B50022002340F66A14A14200D100BF6D
:103230000A1201249440A3B2DC43048010BD21B1E2
:10324000828942F40052828104E082894DF6FF7344
:103250001A408281704702460020B1F5007F00D1FC
:1032600000BF13880B400BB1012000E00020704725
:1032700070B50246002400230025002040F66A169F
:10328000B14200D100BFC1F3421501F01F03012676
:1032900006FA03F3012D02D19689334006E0022D90
:1032A00002D1168A334001E0968A33400C1201267F
:1032B00006FA04F41688344013B10CB1012000E082
:1032C000002070BDF0B50346002400260025002034
:1032D00040F66A17B94200D100BF1846C1F3421444
:1032E00001F01F06012707FA06F5012C01D10C3069
:1032F00004E0022C01D1103000E014301AB107684C
:103300002F43076002E00768AF430760F0BD00008D
:103310002DE9F04786B005460E460024A24600BFC0
:10332000A1460027B08900B100BF2F462C8A4CF679
:10333000FF700440F08804432C82AC894EF6F310F1
:103340000440B08831890843718908430443AC8143
:10335000AC8A4FF6FF400440B0890443AC8201A818
:10336000FFF780F81F48874202D1DDF810A001E086
:10337000DDF80CA0A88900F4004040B10AEBCA00B7
:1033800000EB0A1031684900B0FBF1F807E00AEBE6
:10339000CA0000EB0A1031688900B0FBF1F8642024
:1033A000B8FBF0F004012009642101FB1089A88911
:1033B00000F4004040B1322000EBC900B0FBF1F056
:1033C00000F00700044308E0322000EB09106421FC
:1033D000B0FBF1F000F00F0004432C8106B0BDE813
:1033E000F08700000038014001468888C0F30800DB
:1033F0007047C1F308028280704700BFFEE70000FB
:103400002DE9FC47044659480078012803D1584863
:103410005849086002E05848564908605748007803
:1034200001280FD156480078FDF757FA0646314675
:1034300050480068FDF782F80546FDF764FA5149E7
:10344000086021E050480078012812D14C480078EB
:10345000FDF743FA07464748006880F000463946C2
:103460003046FDF76BF80546FDF74DFA4549086013
:103470000AE046480078012803D10020414908604D
:1034800002E000203F49086060424149086041482D
:103490000068FDF727FA07464FF066323E4BFDF70E
:1034A00032F905460E463A480068FDF71BFA074612
:1034B0004FF03332394BFDF726F981462A46334621
:1034C000FDF77AF8CDE90001FDF74AFA34490860C2
:1034D000084600682F49086032480068304909688A
:1034E00008443049086008460068264909680844CD
:1034F0002C4908600846006842F21071884202DDDB
:10350000084628490860274800682749884202DAA7
:1035100008462449086023480068FDF7D5F980462D
:10352000224801684046FCF7D7FF06461848006865
:10353000FDF7CAF980461E4801684046FCF7CCFFFB
:1035400007463146FCF770FF0546FDF7DCF91949DF
:10355000086019480068FFF7C3FC012802D1002069
:103560001049086013480068BDE8FC872B00002064
:1035700000009643B00000200000C8422200002056
:1035800027000020A80000202300002021000020A8
:1035900098000020A00000206666E63F3333D33F4A
:1035A0009C000020A4000020F0D8FFFF7400002041
:1035B00070000020AC0000200C0000202DE9F04736
:1035C00004460D4629460D480068FCF785FF8146F4
:1035D0000B4801682046FCF779FF824609480168DC
:1035E0005046FCF779FF80464946FCF71DFF074629
:1035F000FDF789F906463046BDE8F0876C000020EB
:1036000064000020680000200FB4054B10B503A92A
:10361000044A029800F09AF810BC5DF814FB000010
:10362000714F0008F4000020490050EAC12018BF83
:1036300004204A0D18BF40F0010040F2FF72B2EBC7
:10364000515F08BF40F00200012808BF0520704705
:103650002DE9F0414F1E00EBC7010446D1E90001FE
:1036600015461E4637F006020DD02A463346FDF7B2
:103670004AF87F1E04EBC703D3E90023FCF79CFF45
:1036800037F00602F1D1022F25D0042F13D0062FD8
:1036900018BFBDE8F0812A463346FDF734F8D4E977
:1036A0000A23FCF789FF2A463346FDF72CF8D4E9B4
:1036B0000823FCF781FF2A463346FDF724F8D4E9B6
:1036C0000623FCF779FF2A463346FDF71CF8D4E9B8
:1036D0000423FCF771FF2A463346FDF714F8D4E9BA
:1036E0000223FCF769FF2A463346FDF70CF8D4E9BC
:1036F0000023BDE8F041FCF75FBF0122FDF7FCBAF3
:10370000FCF75ABF0022134610461146FDF76DB86C
:10371000024A00201107FDF7EFBA000001FDFFFF8C
:1037200002E008C8121F08C1002AFAD1704770478A
:10373000002001E001C1121F002AFBD170470000E8
:103740000149086070470000F80000202DE9FF4F94
:103750008DB00F460546002606E025280BD0DDE992
:103760000F1290476D1C761C28780028F5D111B0F7
:103770003046BDE8F08F0024A246A1460122EC4964
:1037800000E0044315F8013F203B02FA03F0084231
:10379000F7D128782A2810D06FF02F022878A0F1CE
:1037A0003001092914D80AEB8A0102EB410144F0E7
:1037B000020400EB010A6D1CF0E701CF5FEA000A8A
:1037C00003D544F40054CAF1000A44F002046D1C0D
:1037D00028782E2817D115F8010F44F004042A2860
:1037E0000ED06FF02F022878A0F1300109290AD8F5
:1037F00009EB890102EB410100EB01096D1CF2E7C5
:1038000057F8049B6D1C28786C280FD006DC4C28D8
:1038100017D068280DD06A2814D104E0742810D07D
:103820007A280FD10DE044F400140AE044F4801427
:1038300001E044F440146978814202D104F5801417
:103840006D1C6D1C2A786E2A1FD00CDC632A31D0C7
:1038500004DC002A8BD0582A11D1A3E0642A68D056
:10386000692A0CD165E0732A2ED004DC6F2A73D04C
:10387000702A04D19BE0752A6FD0782A6ED010464A
:10388000DDE90F129047761C50E1C4F30250022884
:1038900006D0032809D0042801CF09D0066045E1ED
:1038A00001CFF117C0E9006140E101CF06803DE1A1
:1038B00006703BE117F8040B8DF8000000208DF82E
:1038C0000100EB46012003E057F804BB4FF0FF3046
:1038D00061074FF0000102D40DE008F101018846B4
:1038E00049450FDA8045F8DB1BF808100029F4D1B0
:1038F00008E008F1010188468142FADB1BF8081054
:103900000029F6D1DDE90F23AAEB08008146214604
:1039100000F036F9304400EB080604E0DDE90F1250
:103920001BF8010B9047B8F10108F7D22146484631
:10393000F7E00A21C4F302534FF0000B0891022B69
:1039400004D001CFC117032B09D00AE0FF1D27F0D7
:103950000707F7E8020108E032E01FE020E000B2CC
:10396000C117042B01D140B2C117031E71F100032E
:1039700007DA4FF0000CD0EB0C006CEB01012D23AB
:1039800002E0230504D52B238DF82430012303E026
:10399000E30701D02023F7E7984658E00A2110E01A
:1039A00010210EE010204FF0000B08900CE01021C9
:1039B0004FF0000B44F004044FF00809089103E0B5
:1039C00008214FF0000B0891C4F30253022B04D0DE
:1039D00001CF0021032B06D006E0FF1D27F00707CB
:1039E000F7E8020103E080B2042B00D1C0B24FF02F
:1039F000000823072BD5702A07D0DDF820C08CF0F3
:103A0000100C5CEA0B0C05D00EE040238DF824303E
:103A1000012308E050EA010306D030238DF824305A
:103A20008DF8252002239846DDF820C08CF0080C84
:103A30005CEA0B0C0BD150EA010301D1630706D5F8
:103A400030238DF824304FF00108A9F10109582ADC
:103A500004D038A20B9208AA0A920BE03AA2F9E726
:103A60005B46089AFDF710F80B9B9B5C0A9A521E66
:103A70000A92137050EA0102F2D10A98ADEB0000ED
:103A800000F1200B600702D524F4803401E04FF0F0
:103A90000109D94502DDA9EB0B0000E0002000EB95
:103AA0000B0141440890AAEB010AE00306D4DDE9CA
:103AB0000F232146504600F063F806444FF00009FA
:103AC00008E009A911F80900DDE90F12904709F192
:103AD0000109761CC145F4DBE0030CD5DDE90F23B9
:103AE0002146504600F04CF8064404E0DDE90F1290
:103AF00030209047761C0899481E08900029F5DC74
:103B000008E00A980A990078491C0A91DDE90F1229
:103B10009047761CBBF10001ABF1010BF1DC2146B3
:103B20005046DDE90F2300F019F806446D1C1BE632
:103B30000928010030313233343536373839616283
:103B40006364656600000000303132333435363747
:103B50003839414243444546000000002DE9F04118
:103B6000044600251E461746880404D405E039465D
:103B70002020B0476D1C641EF9D52846BDE8F081B1
:103B80002DE9F041044600251E469046C80301D5A4
:103B9000302700E02027880404D505E04146384658
:103BA000B0476D1C641EF9D52846BDE8F0810000C1
:103BB0002DE9FE4F06460F460025684601F0EAF95A
:103BC000002442E056F8240057F82410A0EB010A24
:103BD000BAF1000F01DB514601E0CAF100010846CD
:103BE000FCF772FE83464FF08F41FCF7A7FC80463E
:103BF0005DF824000021FCF733FF16D05DF8241097
:103C00004046FCF79BFC82464FF07E51FCF75EFC81
:103C1000814629F0004A0F48416A5046FCF72AFFC6
:103C200012D20120A04005430EE00A48C169404677
:103C3000FCF716FF05D30748016A4046FCF71AFF58
:103C400002D20120A0400543641C032CBADB2846A5
:103C5000BDE8FE8F247700082DE9F04D8D4F21F04F
:103C6000004A86B005460C46BA452ADBAAEB070097
:103C700028430AD08848824501DC1AD1CDB106B06C
:103C80002846BDE8F04DFFF738BD844A844B2846EE
:103C9000FCF739FD07460E46824A834B28462146EB
:103CA000FCF731FD06B03A463346BDE8F04DFCF76F
:103CB00083BC0120FFF744FD06B0BDE8F04DFFF7DF
:103CC00021BD7A48824542DABAF1795F0BDA28469B
:103CD000FFF7AAFC042808BFFFF71AFD284606B024
:103CE0002146BDE8F08D2A460B461046FCF70BFD39
:103CF000834602466E480E460B4606217844FFF77F
:103D0000A7FC5A463346FCF7FEFC804669488A46C3
:103D10005A46334604217844FFF79AFC5A46334604
:103D2000FCF7F1FC00223B46FCF746FC02460B4642
:103D300040465146FCF759FD2A462346FCF7E3FC72
:103D400006B02A462346BDE8F04DFCF735BC2846B0
:103D500024F0004100223D463B46FCF7D1FC4FF0E9
:103D6000FF32FCF7C9FF0646024653480F460B4692
:103D700006217844FFF76CFC32463B46FCF7C3FC57
:103D8000CDE900014D4832463B4604217844FFF717
:103D90005FFC32463B46FCF7B6FC00222B46FCF7A4
:103DA0000BFC834602913046394602F047FE8046BE
:103DB00043480D46504517DCDDE900015A46029B99
:103DC000FCF713FD42462B46FCF79DFC42462B4672
:103DD000FCF7F2FB0122FCF78FFF304A304BFCF777
:103DE0008CFC304A304B4CE04FF0000A52460B46F8
:103DF0004046FCF7E1FBCDE9031052462B46104646
:103E00001946FCF780FC32463B46FCF779FCDDE9BD
:103E10000332FCF7EAFC06460F46DDE900015A468C
:103E2000029BFCF7E2FC83460091012230463946B2
:103E3000FCF762FF194A1A4BFCF762FC06460F4674
:103E4000012240462946FCF757FF5A46009BFCF7E3
:103E50005AFC32463B46FCF750FC06460F46012210
:103E600050462946FCF748FF0E4DDFF858802A4699
:103E70004346FCF745FC32463B46FCF741FC2A46EC
:103E80004346FCF73DFC002CD8BF81F0004106B052
:103E9000BDE8F08D0000F03F0000F07F075C1433B8
:103EA00026A6913C182D4454FB21F93F0000E03F29
:103EB000684200007E420000F2410000084200001B
:103EC0003333EF3FFB21E93F2DE9F84F04460D4620
:103ED00021F0004000917349814211DC724988420F
:103EE00001DC06D12CB120462946BDE8F84FFFF78A
:103EF00004BC6E48002DCCBF6D496E49BDE8F88FFB
:103F00006D49814211DD6D498142D8BF4FF0FF36C6
:103F10006DDD20462946FFF787FB042808BFFFF721
:103F2000F7FB20462946BDE8F88F6549654F25F027
:103F30000045814233DD6449814219DD0026324665
:103F40004FF0804320462946FCF736FB80468A46E0
:103F5000012220462946FCF7CFFE00223B46FCF713
:103F6000CCFB42465346FCF740FC04460D463EE07F
:103F700001260022BA463B4620462946FCF71CFB98
:103F800080460F460022534620462946FCF7B5FBE3
:103F900042463B46FCF729FC04460D4627E04B49C8
:103FA00081421BDDDFF828A102260022534620466D
:103FB0002946FCF7A8FB00223B46FCF7FDFA8046A9
:103FC0000F460022534620462946FCF796FB424600
:103FD0003B46FCF70AFC04460D4608E00326224651
:103FE0002B4600203B49FCF700FC04460D462246C8
:103FF0002B4610461946FCF786FB8B468246024646
:104000000B46FCF780FB07460246334888460B46C2
:1040100006217844FFF71CFB52465B46FCF773FB16
:1040200082462E488B463A46434605217844FFF7A0
:104030000FFB3A464346FCF766FB02460B46002E52
:10404000504659460CDAFCF7B7FA22462B46FCF7E5
:104050005AFB01B022462B46BDE8F04FFCF750BB9F
:10406000FCF7AAFA22462B46FCF74DFB1C4A7A4481
:1040700002EBC603D3E90023FCF73FFB22462B46A5
:10408000FCF73BFB174A7A4402EBC603D3E9002353
:10409000FCF736FB009A002AB8BF81F00041BDE86A
:1040A000F88F0000000010440000F07F182D4454E9
:1040B000FB21F93FFB21F9BF0000DC3F0000203E5F
:1040C0000000F33F0000F03F0000E63F00800340A7
:1040D0000000F83F0000F0BF0A400000C83F0000A9
:1040E000663F00002E3F00002DE9F04D9446CCF1D4
:1040F000000423F000464CEA0404524F46EAD4740C
:104100009A46884621F00042BC4206D8454240EA21
:10411000050442EAD474BC4204D9BDE8F04D6246BD
:10412000FFF7EEBAAAF14055A5F17F6555EA0C04F8
:104130000BD0022404EAAA74434DDFF810E144EAEC
:10414000D87452EA000B04D00CE0BDE8F04DFFF744
:10415000BBBE002C14BF012CBDE8F08D022C30D06A
:10416000032C32D056EA0C0B0AD0BE4220D1BA4200
:1041700009D126F0804622F080423346114617E0EE
:1041800000291ADB25E0DFF8C8B0FB44002C04BF8F
:10419000DBE90001BDE8F08D012C02BFDBE9000185
:1041A00081F00041BDE8F08D022C0AD0032C0CD028
:1041B000BA4212D1B8F1000F0BDA23482549BDE805
:1041C000F08D28462449BDE8F08D28467146BDE8AB
:1041D000F08D1D482149BDE8F08D921B12153C2A37
:1041E000C4BF19481D490EDCBAF1000FBEBF12F161
:1041F0003C0F0020014606DB6246FCF7F6FA21F090
:104200000041FFF761FE002C08BFBDE8F08D012CD6
:1042100004BF81F00041BDE8F08D114A114B022C22
:1042200007D0FCF76AFA2A46BDE8F04D0A4BFCF7C6
:1042300064BAFCF762FA2A46BDE8F04D064BFCF77B
:104240005FBA00000000F07F182D4454FB2109C024
:10425000C23E0000FB21F9BFFB210940FB21F93FD1
:10426000075C143326A6A13C0146002003E000228F
:104270000A54421CD0B20A28F9DB70472DE9F041FC
:104280000446E07800F0C006E07800F03F05607872
:1042900000F0010098B1EF102846E91705EB5171C5
:1042A000C910A5EBC101491C01F0FF080B480068CB
:1042B00020B10A48414602683846904700BF6078FE
:1042C00000F0080030B10548406818B1B011034A49
:1042D000516888470020BDE8F0810000FC00002004
:1042E00010B56FF00400FEF7FDF90A4800680A49AE
:1042F000B0FBF1F0094908700846007800EB400176
:10430000C1EBC0104FF6FF7101EAC00004490880FC
:1043100010BD0000CC00002000127A00C800002070
:10432000CA0000200146114A12884A434FF0E02398
:104330005A6100229A611A46126942F001021A611A
:1043400000BF4FF0E022106900F001021AB100F442
:104350008032002AF5D04FF0E022126922F00102EB
:104360004FF0E0231A6100229A617047CA000020D2
:104370000146114A12784A434FF0E0235A61002265
:104380009A611A46126942F001021A6100BF4FF0A9
:10439000E022106900F001021AB100F48032002A14
:1043A000F5D04FF0E022126922F001024FF0E02335
:1043B0001A6100229A617047C800002038B504468F
:1043C00064B120208DF8000028208DF801003020F5
:1043D0008DF8020038208DF8030004E0A3220421A8
:1043E0006846FBF7D0FE6A46042140F69E2002F0A4
:1043F00053FA01F03DFE38BD3EB5044602208DF86B
:104400000000CA208DF80100E3208DF80200092089
:104410008DF803006A460421682002F03DFAA320CB
:104420008DF8000004F0400048B1C0208DF8010074
:10443000C8208DF80200C2208DF8030006E0A320FA
:104440008DF801008DF802008DF8030004F4C070AF
:1044500048B1C4208DF80400CC208DF80500C6209A
:104460008DF8060006E0A3208DF804008DF8050005
:104470008DF80600A3208DF807008DF808008DF850
:1044800009006A460A2140F6A72002F005FA04F066
:10449000030018B120208DF8000002E0D8208DF82C
:1044A00000006A46012140F6B62002F0F5F904F05A
:1044B000200018B1012000F0ADF802E0002000F06B
:1044C000A9F804F4C07008B304F4807060B1B2209D
:1044D0008DF800008B208DF80100B6208DF80200C9
:1044E0009B208DF803000BE0B0208DF800008020A9
:1044F0008DF80100B4208DF8020090208DF80300A3
:104500006A46042140F6A22002F0C6F904F0010038
:1045100020B3F8208DF800006A4601214FF40B60AB
:1045200002F0BAF9FA21072000F02CFC072000F075
:10453000F3FB012000F013FC642000F0F3FC4FF4C7
:10454000FA7000F002FDC821304800F0A3FB2820DB
:1045500000F0BCFB0A2000F0CCFB08E0D8208DF86E
:1045600000006A4601214FF40B6002F095F904F057
:10457000020018B1D9208DF8000002E0D8208DF893
:1045800000006A46012140F23D7002F085F904F016
:10459000040018B1012000F069F802E0002000F0EA
:1045A00065F804F0100018B10120FFF707FF02E0E2
:1045B0000020FFF703FF44F008001549488101F08F
:1045C00057FD00201249887304F0400018B10846D6
:1045D000807B801D887304F4C07020B10C48807B00
:1045E000801D0B49887304F0140020B10848807BBB
:1045F00010300749887304F0030020B10448807B21
:10460000001D0349887300203EBD000009E3CA0273
:10461000FC0000203EB504466CB10EA1D1E900209B
:104620008968CDE9002002916A4609214FF497601C
:1046300002F032F93EBD0AA2D2E900109268CDE93B
:10464000010200916A4609214FF4976002F024F9B3
:10465000F0E70000B8AAB38DB4980D355D000000F6
:10466000B8AAAAAAB088C3C5C700000038B50446D6
:1046700064B1C0208DF80000C2208DF80100C42074
:104680008DF80200C6208DF8030004E08B2204217F
:104690006846FBF778FD6A46042140F6982002F050
:1046A000FBF801F0E5FC38BD10B5C8234FF480627B
:1046B000024940F6F63001F06FFB10BD046B0008B4
:1046C0002DE9F04F8DB00746884615469946DDE93D
:1046D000166B0024002030806B49887B5A4605A960
:1046E00001F026FC18B1601E0DB0BDE8F08F6648E1
:1046F000807A00F01400002867D09DF814000006AE
:104700009DF8151040EA01409DF8161040EA01207E
:104710009DF81710084328609DF8180000069DF8C2
:10472000191040EA01409DF81A1040EA01209DF856
:104730001B10084368609DF81C0000069DF81D10C2
:1047400040EA01409DF81E1040EA01209DF81F102C
:104750000843A8609DF8200000069DF8211040EA5B
:1047600001409DF8221040EA01209DF823100843E3
:10477000E86004F11000C4B2286800140190686871
:1047800000140290A86800140390E86800140490D4
:1047900001984043029901FB0100039901FB0100CC
:1047A000049901FB010ABAF1706F02DBBAF1885F6C
:1047B00005DD01F05DFC00203080401E94E7B6F975
:1047C000000040F48070308000BF2F48807A00F0F5
:1047D000400020B305A9601C085C095D40EA012087
:1047E00000B2A8F8000005A9E01C095C05AAA01CFD
:1047F000105C41EA002000B2A8F8020005A9601D83
:10480000095C201D105C41EA002000B2A8F80400F9
:10481000A01DC4B2B6F9000040F0080030801A486C
:10482000408900F4C07008B305A9601C085C095DEC
:1048300040EA012000B2388005A9E01C095C05AA05
:10484000A01C105C41EA002000B2788005A9601D20
:10485000095C201D105C41EA002000B2B880A01D58
:10486000C4B2B6F9000040F0700030800648807A8B
:1048700000F0030018B105A90819FFF7FFFC48462E
:1048800000F020FF00202FE7FC00002070B588B06A
:10489000064601A801F0D4F8BDF804000021C903C0
:1048A00041EA5045C4034448007A00F0030056F83A
:1048B000200005904048007A00F0040010B10598EF
:1048C000404205903C48007AC0F3C10056F82000F1
:1048D00006903948007A00F0200010B10698404256
:1048E00006903548007AC0F3811056F820000790F2
:1048F0003148008900F4807010B107984042079059
:104900000598C117A0FB042301FB043100FB05102F
:10491000810041EA927005900698C117A0FB04231C
:1049200001FB043100FB0510810041EA9270069002
:104930000798C117A0FB042301FB043100FB0510FD
:10494000810041EA927007900598000E8DF80800EA
:104950000598000C8DF809000598000A8DF80A00EA
:104960000598C0B28DF80B000698000E8DF80C006B
:104970000698000C8DF80D000698000A8DF80E00C0
:104980000698C0B28DF80F000798000E8DF8100041
:104990000798000C8DF811000798000A8DF8120096
:1049A0000798C0B28DF8130002AA0C214FF42570AD
:1049B00001F072FF08B070BDFC00002030B585B07A
:1049C000044616A207CA02AB07C3C82C03DD4FF08A
:1049D000FF3005B030BDC82090FBF4F0401E85B21A
:1049E000280A8DF80000E8B28DF801006A4602211D
:1049F00040F2162001F050FF10B14FF0FF30E8E711
:104A000002AA0C2140F6C12001F046FF10B14FF080
:104A1000FF30DEE7044884810020DAE7FEF2ABC411
:104A2000AAF1DFDFBBAFDFDFFC0000201FB50446CB
:104A30004848007A00F0030054F8200001904548EF
:104A4000007A00F0040010B1019840420190414802
:104A5000007AC0F3C10054F8200002903D48007A6B
:104A600000F0200010B10298404202903948007ACC
:104A7000C0F3811054F8200003903648008900F4F8
:104A8000807010B10398404203903349019880FB35
:104A90000101800F40EA810001902F49029880FBBC
:104AA0000110820042EA917002902B49039880FB2A
:104AB0000110820042EA917003900198000E8DF877
:104AC00000000198000C8DF801000198000A8DF893
:104AD00002000198C0B28DF803006A4604214FF429
:104AE000747001F0D9FE18B14FF0FF3004B010BD62
:104AF0000298000E8DF800000298000C8DF801005D
:104B00000298000A8DF802000298C0B28DF80300E6
:104B10006A4604214FF4757001F0BEFE10B14FF0EB
:104B2000FF30E3E70398000E8DF800000398000CB7
:104B30008DF801000398000A8DF802000398C0B2B6
:104B40008DF803006A4604214FF4767001F0A4FE4C
:104B5000CCE70000FC00002009E3CA0210B586B0D3
:104B6000044647A00068039046A00068029046A053
:104B70000068019045A00068009004F0030003A9BC
:104B8000085C8DF8140003A8C4F3C101405C8DF8E3
:104B9000150003A8C4F38111405C8DF8160004F0E1
:104BA000030002A9085C8DF8100002A8C4F3C1013B
:104BB000405C8DF8110002A8C4F38111405C8DF8AF
:104BC000120005AA032140F2264001F065FE18B14B
:104BD0004FF0FF3006B010BD04AA032140F22A4076
:104BE00001F05AFE10B14FF0FF30F3E70198059045
:104BF0000098049004F0040058B19DF8140040F0AF
:104C000001008DF814009DF8100040F001008DF8AF
:104C1000100004F0200058B19DF8150040F001008C
:104C20008DF815009DF8110040F001008DF811007D
:104C300004F4807058B19DF8160040F001008DF822
:104C400016009DF8120040F001008DF8120005AA30
:104C500003214FF4886001F01FFE10B14FF0FF30C8
:104C6000B8E704AA032140F2314001F015FE10B16B
:104C70004FF0FF30AEE7064804810020AAE70000AD
:104C80004CCD6C000CC92C003656760026466600CA
:104C9000FC000020F8B505460E464FF47A7095FBEF
:104CA000F0F000FB06F4200E8DF80000200C8DF8CB
:104CB0000100200A8DF80200E0B28DF803006A4678
:104CC00004214FF4AE7001F0E7FDF8BD38B504469D
:104CD000052094FBF0F084B220128DF80000E0B2C1
:104CE0008DF801006A4602214FF4AD7001F0D4FD49
:104CF00038BD38B50446052094FBF0F084B220128C
:104D00008DF80000E0B28DF801006A4602214FF4F0
:104D1000AC7001F0C1FD38BD38B5044600200090EC
:104D200004F0010020B19DF8000040F03000009038
:104D300004F0020020B19DF8000040F00C0000904B
:104D400004F0040020B19DF8000040F00300009042
:104D50006A4601214FF4A47001F09EFD38BD38B5BC
:104D60000446012C01DA012402E0042C00DD0424B5
:104D7000601EC0B200906A46012140F24F1001F05F
:104D80008BFD38BD2DE9FC4706460F4606F00700AF
:104D900010B1B7F5C86F03DD4FF0FF30BDE8FC87F9
:104DA0003846FBF79AFD81465949FBF7C7FB804619
:104DB000684600F01FFE9DF80000022806D0042877
:104DC00016D0082826D0102848D135E04FF08D4164
:104DD0004046FBF781FB8146FBF7AEFD84B24D49AF
:104DE0004046FBF779FB8146FBF7A6FD85B238E02C
:104DF0004FF08C414046FBF76FFB8146FBF79CFD73
:104E000084B245494046FBF767FB8146FBF794FDBA
:104E100085B226E04FF08B414046FBF75DFB8146B3
:104E2000FBF78AFD84B23D494046FBF755FB8146BE
:104E3000FBF782FD85B214E04FF08A414046FBF754
:104E40004BFB8146FBF778FD84B235494046FBF7C2
:104E500043FB8146FBF770FD85B202E04FF0FF3067
:104E60009CE700BF20128DF80400E0B28DF8050029
:104E700028128DF80600E8B28DF8070006F0010050
:104E8000A0B101AA02214FF4EA7001F005FD10B1B2
:104E90004FF0FF3082E70DF1060202214FF49270CD
:104EA00001F0FAFC10B14FF0FF3077E706F0020096
:104EB000A0B101AA02214FF4EC7001F0EDFC10B199
:104EC0004FF0FF306AE70DF1060202214FF49470B3
:104ED00001F0E2FC10B14FF0FF305FE706F0040094
:104EE000A0B101AA02214FF4EE7001F0D5FC10B17F
:104EF0004FF0FF3052E70DF1060202214FF4967099
:104F000001F0CAFC10B14FF0FF3047E7002045E741
:104F100000004843000040460000C04500004045F6
:104F20000000C04438B50446052094FBF0F085B27B
:104F300028128DF80000E8B28DF801006A460221BF
:104F40004FF4EF7001F0A8FC38BD38B504460520D9
:104F500094FBF0F085B228128DF80000E8B28DF8CD
:104F600001006A4602214FF4ED7001F095FC38BD56
:104F700070B504460D46E1B20548FEF73AFA00BFA7
:104F800080210348FEF767F90028F9D0204670BD5C
:104F9000004400407CB5054628494968087801ABC3
:104FA00004220D21FCF7C4FD08B107207CBD9DF84B
:104FB0000700C0F301109DF8041001F0E00140EA81
:104FC000E1008DF800009DF80700C0F381009DF816
:104FD000051001F0E00140EAE1008DF801009DF8C4
:104FE000070000F003009DF8061001F0E00140EA20
:104FF000E1008DF8020000241CE01DF8040018B93F
:10500000002045F8240013E00D4845F8240006E090
:1050100055F824000B49FBF75FFA45F824001DF80A
:105020000400401EC0B20DF804000028F0D100BFFB
:10503000601CC4B2032CE0DB0020B7E72C0000208A
:105040007B14AE3E1D5A843F2DE9F04F87B00546D4
:105050000C46914601208DF8100000208DF81100BB
:10506000FE4A1268917CFD4A5268107804AB022215
:10507000FCF704FE20B14FF0FF3007B0BDE8F08F21
:10508000C820FFF74FF900208DF81000F34A12688E
:10509000D17BF24A5268107804AB0122FCF7EEFD96
:1050A00010B14FF0FF30E8E7EC4A12685179EB4A53
:1050B0005268107804AB0122FCF7E0FD10B14FF00C
:1050C000FF30DAE7E54A1268917CE44A52681078CA
:1050D00004AB0122FCF7D2FD10B14FF0FF30CCE75A
:1050E000DE4A1268D17DDD4A5268107804AB012295
:1050F000FCF7C4FD10B14FF0FF30BEE7D74A12688D
:105100001179D64A5268107804AB0122FCF7B6FD3B
:1051100010B14FF0FF30B0E70C208DF81000CF4AEF
:1051200012681179CD4A5268107804AB0122FCF75D
:10513000A5FD10B14FF0FF309FE70F20FFF7F2F809
:10514000C648806A407A8DF81000C44A1268917887
:10515000C24A5268107804AB0122FCF78FFD10B1EF
:105160004FF0FF3089E7BD48806A007A8DF8100063
:10517000BA4A12685178B94A5268107804AB0122D1
:10518000FCF77CFD10B14FF0FF3076E7B9F1000F6E
:1051900007D0B248806A807A40F0E0008DF81000B5
:1051A00004E0AE48806A807A8DF81000AB4A12683D
:1051B0009179AA4A5268107804AB0122FCF75EFD8F
:1051C00010B14FF0FF3058E7B9F1000F07D0A348F6
:1051D000806AC07A40F0E0008DF8100003E0A0483B
:1051E000C07A8DF810009D4A1268D1799B4A5268A6
:1051F000107804AB0122FCF741FD10B14FF0FF30F5
:105200003BE7B9F1000F02D0C820FFF78BF8402030
:105210008DF81000914A12681179904A52681078FE
:1052200004AB0122FCF72AFD10B14FF0FF3024E758
:1052300078208DF81000894A12685179874A52689F
:10524000107804AB0122FCF719FD10B14FF0FF30CC
:1052500013E783498889FFF765F800208DF810006F
:105260007E4A126851797D4A5268107804AB012257
:10527000FCF704FD10B14FF0FF30FEE6774A1268EC
:10528000917A764A5268107804AB0222FCF750FCFF
:1052900010B14FF0FF30F0E69DF811009DF81010AE
:1052A00040EA012B0C209BFBF0F0C6B20020A86066
:1052B00068602860A06060602060824665E0674AA0
:1052C0001268D17A654A5268107804AB0C22FCF758
:1052D0002FFC10B14FF0FF30CFE69DF811009DF884
:1052E000101040EA012000B2ADF808009DF813004C
:1052F0009DF8121040EA012000B2ADF80A009DF8B6
:1053000015009DF8141040EA012000B2ADF80C0021
:10531000BDF90810206808442060BDF90A106068D3
:1053200008446060BDF90C10A0680844A0609DF8B6
:1053300017009DF8161040EA012000B2ADF80000F9
:105340009DF819009DF8181040EA012000B2ADF850
:1053500002009DF81B009DF81A1040EA012000B2DF
:10536000ADF80400BDF90010286808442860BDF9B4
:105370000210686808446860BDF90410A868084411
:10538000A8600AF1010000F0FF0AB24597DB34483B
:10539000D0F800C02868C117090441EA1041070489
:1053A000624600233846FAF7BDFE32460023CDE9B7
:1053B0000201FAF7B7FE28602948D0F800C06868F3
:1053C000C117090441EA1041070462460023384628
:1053D000FAF7A8FE32460023CDE90201FAF7A2FE51
:1053E00068601F48D0F800C0A868C117090441EAE6
:1053F00010410704624600233846FAF793FE32460E
:105400000023CDE90201FAF78DFEA8601448D0F818
:1054100004C02168C817000440EA11480F0462461E
:10542000002338464146FAF77DFE32460023CDE997
:105430000201FAF777FE20600948D0F804C06068DE
:10544000C117090441EA10410704624600233846A7
:10545000FAF768FE3246002304E000002C0000202A
:1054600024770008CDE90201FAF75CFE606011487C
:10547000D0F804C0A068C117090441EA104107042C
:10548000624600233846FAF74DFE32460023CDE946
:105490000201FAF747FEA060A068002804DDA068BA
:1054A000A0F58030A06003E0A06800F58030A06027
:1054B0000020E2E5247700082DE9FC5F06460F4650
:1054C00000253D494968087801AB03220D21FCF70E
:1054D0002FFB10B10720BDE8FC9F9DF8040000F0F1
:1054E0001F008DF804009DF8050000F01F008DF8E6
:1054F00005009DF8060000F01F008DF8060000244E
:1055000056E056F8240057F82410A0EB010BBBF12D
:10551000000F01DB594601E0CBF100010846FBF723
:10552000D3F94FF08F410090FBF708F8814601A8AE
:10553000005D68B321490868FBF7CFF983465946F7
:105540001F48FAF7FBFF804604E01E494046FAF781
:10555000C3FF804601A8005D401EC0B201A90855E6
:105560000028F2D141464846FAF7E8FF83464FF05B
:105570007E51FAF7ABFF82462AF0004B0F48816953
:105580005846FBF777FA12D20120A04005430EE0FF
:105590000A4801694846FBF763FA05D307484169A1
:1055A0004846FBF767FA02D20120A0400543641C7D
:1055B000032CA6DB28468EE72C0000202477000869
:1055C00000B04C4554E3853F10B50446204600F03A
:1055D0000FF80346E01C00F00BF843EAC00083B26A
:1055E000A01D00F005F843EA801083B2184610BDF4
:1055F000014691F90020002A01DD00201EE091F90A
:105600000020002A01DA042018E091F90120002A84
:1056100001DD012012E091F90120002A01DA0520C4
:105620000CE091F90220002A01DD022006E091F948
:105630000220002A01DA062000E00720704700005F
:1056400008B54FF44070FCF7D7FB4FF4165001F04B
:105650001BFA4FF4E130FDF7A1FDFEF741FEFCF728
:1056600056FBFBF777FDFCF70BFDFCF7CFFBFCF7D8
:1056700005FA00F073F9FBF7A9FEFBF7F3FEFCF760
:105680002FFB002141F61F40FCF774FEFCF760F889
:1056900008A0FDF7B9FF0CE009480068FBF798F98E
:1056A0000446012022460B46002100900846FCF7E4
:1056B000CDFBF1E7B3F5CABCBBAFCDEAB3C90A0075
:1056C0000C0000207047000070B50446002624F04E
:1056D0000104184890F8240008B1002070BD154856
:1056E000807A10B94FF0FF30F8E71248057C807AD5
:1056F0002040104908740846007CA04202D04FF0B8
:10570000FF3600E0002614B90A48007D18B10120D8
:1057100001F04CF902E0002001F048F93CB100F042
:10572000A7FC20B1034805744FF0FF30D6E73046A0
:10573000D4E700002C0000202DE9F04F99B004467A
:105740000D4616464FF07E574FF000084FF0000907
:105750004FF0000A12A813A918AB0EAACDE9001049
:1057600014A916A8FEF7ACFF18B1012019B0BDE8C6
:10577000F08FBDF84C0000F4807000287ED00E98A9
:10578000FBF7A2F883464FF09D41FAF7D7FE074694
:105790000F98FBF799F883464FF09D41FAF7CEFE3C
:1057A00080461098FBF790F883464FF09D41FAF73A
:1057B000C5FE81461198FBF787F883464FF09D415F
:1057C000FAF7BCFE824639464FF08040FAF784FE75
:1057D00049460590FAF780FE414607904FF0404059
:1057E000FAF77AFE51460590FAF776FE0690079989
:1057F000FAF71AFE8346FBF7EBF8CDE90801FEF74E
:105800002BFA4FF06632544BCDE90A01FAF77BFFD1
:10581000CDE90C01FBF708F9206049464FF08040C4
:10582000FAF75AFE49460290FAF756FE41460490AE
:105830004FF04040FAF750FE41460290FAF74CFE16
:1058400003900499FAF742FE83464FF07E51FAF72F
:10585000EBFD0590FBF7BCF8CDE9080139464FF0A8
:105860008040FAF739FE41460390FAF735FE494683
:1058700004904FF08040FAF72FFE00E068E05146B8
:105880000390FAF729FE83460499FAF7CDFD0590B7
:10589000FBF79EF8CDE90601DDE90823FEF724FCBD
:1058A0004FF066322C4BCDE90A01FAF72CFFCDE917
:1058B0000C01FBF7B9F8286051465046FAF70CFE88
:1058C000494604904846FAF707FE41460390404691
:1058D000FAF702FE394601903846FAF7FDFD0090CE
:1058E0000199FAF7A1FD02900399FAF7EFFD8346BB
:1058F0000499FAF7EBFD0590FBF76AF8CDE908018A
:1059000051463846FAF7E8FD494604904046FAF712
:10591000E3FD03900499FAF787FD4FF0804105906D
:10592000FAF7DAFD8346FBF753F8CDE90601DDE926
:105930000823FEF7D9FB4FF06632074BCDE90A0189
:10594000FAF7E1FECDE90C01FBF76EF8306001E0FB
:1059500002200BE7002009E766A64C4070B5002442
:10596000FBF772FF00F020F900283DD1782000F00D
:105970002BFFC4B20CB1012070BD7820FFF7A4FE4C
:10598000C4B20CB10220F7E7642000F0CFFEC4B22D
:105990000CB10320F0E7FEF787FEC4B20CB104207F
:1059A000EAE71348FFF710FE0546FFF7D7F8C4B241
:1059B0000CB10520E0E740F27310FEF71DFDC4B204
:1059C0000CB10620D8E76420FEF7F8FFC4B20CB192
:1059D0000720D1E700F0A0FF0446012000F0A2FD5F
:1059E000C4B21CB10920C7E70A20C5E70020C3E7FD
:1059F0005800002001461148407A30B1012807D0F4
:105A0000022808D003280CD108E0022008700BE01F
:105A10000420087008E00820087005E010200870D5
:105A200002E04FF0FF30704700BF0448C07C18B15F
:105A300008784006000E08700020F4E72C000020D3
:105A400001461348407A30B1012808D002280AD014
:105A5000032810D10BE04FF4804008800EE041F69F
:105A60009C7008800AE04FF48050088006E04FF4F4
:105A70000060088002E04FF0FF30704700BF04482C
:105A8000C07C10B10888401008800020F5E70000B5
:105A90002C00002001460248007C0870002070475E
:105AA0002C00002001460F48007A30B1012807D0B1
:105AB000022809D003280FD10AE0FA2008800EE05E
:105AC0004FF4FA7008800AE04FF47A70088006E01C
:105AD0004FF4FA60088002E00020088000BF00BF99
